:1000000000308A0019280000223084008313000881
:10001000031918280130F800F701F70B0D28F80B29
:100020000C284A30F700F70B13281628800B0A28F3
:10003000080003081F39830083161F149F141F151F
:100040009F1107309C008313091283129001003026
:10005000F80092000030831692001F149F141F15A1
:100060009F1183121F10F03097059D0500308316F5
:1000700086008312860106140230A100FA30A20025
:100080000420A10B3E2806100230A100FA30A20085
:0A0090000420A10B46283B28630062
:02400E00393F38
:00000001FF
;PIC16F877A
;CRC=44E0  CREATED="13-Eki-20 13:23"
