:1000000000308A001A280000223084008313000880
:10001000031917280630F800F701F70B0D28F80B25
:100020000C287B30F700F70B1328800B0A288A1165
:100030000A12362803081F39830083161F149F14E1
:100040001F159F1183130514831205183128831679
:1000500005148312051C272883160610013083120D
:1000600086060430A100AF30A2000428A10B33287B
:1000700083168610023083128606831623286300B7
:02400E00323F3F
:00000001FF
;PIC16F877
;CRC=C838  CREATED="27-Eki-20 19:40"
