:1000000000308A001A280000323084008313000870
:10001000031917280630F800F701F70B0D28F80B25
:100020000C287B30F700F70B1328800B0A288A1165
:100030000A12562803081F398300B00183161F14C3
:100040009F141F159F1107309C00831340308312AB
:10005000A0007930A1002430A2003030A300193074
:10006000A4001230A5000330A6007830A700A80134
:100070001030A9000830AA000330AB004630AC00B5
:100080002130AD000630AE000E30AF00203030071A
:10009000840083130008B10083168601831231089F
:1000A00086000230B100FA30B2000428B10B5328A8
:0E00B000B00A3008093C031CB001462863006A
:02400E00723FFF
:00000001FF
;PIC16F877A
;CRC=2636  CREATED="27-Eki-20 00:40"
